:100000000C942A000C94D1010C94D1010C94D101D0
:100010000C94D1010C94D1010C94D1010C94D10118
:100020000C94D1010C94D1010C94D1010C94D10108
:100030000C94D1010C94D1010C94D1010C94D101F8
:100040000C94D1010C94D1010C94D1010C94D101E8
:100050000C94D10111241FBECFE5D8E0DEBFCDBF87
:0C0060000E94B3000C943400F894FFCF11
:10006C0041155105E9F14130510509F075C0823057
:10007C009105A9F01CF4019739F00895833091058E
:10008C00C9F0049711F108952AB381E090E002C001
:10009C00880F991F6A95E2F7822B8ABB089527B3C4
:1000AC0081E090E002C0880F991F6A95E2F7822BDD
:1000BC0087BB089524B381E090E002C0880F991F9C
:1000CC006A95E2F7822B84BB089521B381E090E01E
:1000DC0002C0880F991F6A95E2F7822B81BB0895A5
:1000EC0082309105B1F01CF4019739F008958330FA
:1000FC009105D9F0049729F108952AB381E090E095
:10010C0002C0880F991F6A95E2F7809582238ABBFB
:10011C00089527B381E090E002C0880F991F6A957B
:10012C00E2F78095822387BB089524B381E090E0A9
:10013C0002C0880F991F6A95E2F78095822384BBD1
:10014C00089521B381E090E002C0880F991F6A9551
:0A015C00E2F78095822381BB08952D
:1001660040E050E060E070E082E090E00E943600FF
:1001760040E050E064E070E082E090E00E943600EB
:1001860040E050E062E070E084E090E00E943600DB
:1001960041E050E062E070E083E090E00E943600CB
:1001A60041E050E067E070E084E090E00E943600B5
:1001B60041E050E063E070E084E090E00E943600A9
:1001C60060E070E082E090E00E949901892B39F0AE
:1001D60062E070E083E090E00E94600106C062E0A9
:1001E60070E083E090E00E94230164E070E082E02A
:1001F60090E00E949901892B39F067E070E083E076
:1002060090E00E94600106C067E070E083E090E045
:100216000E94230162E070E084E090E00E94990170
:10022600892B39F063E070E084E090E00E94600181
:10023600C7CF63E070E084E090E00E942301C0CF66
:1002460082309105B1F01CF4019739F0089583309E
:100256009105D9F0049729F108952BB381E090E038
:1002660002C0880F991F6A95E2F7809582238BBB9F
:10027600089528B381E090E002C0880F991F6A951F
:10028600E2F78095822388BB089525B381E090E04C
:1002960002C0880F991F6A95E2F78095822385BB75
:1002A600089522B381E090E002C0880F991F6A95F5
:0A02B600E2F78095822382BB0895D1
:1002C00082309105A9F01CF4019739F0089583302C
:1002D0009105C9F0049711F108952BB381E090E0E6
:1002E00002C0880F991F6A95E2F7822B8BBB089595
:1002F00028B381E090E002C0880F991F6A95E2F769
:10030000822B88BB089525B381E090E002C0880F5E
:10031000991F6A95E2F7822B85BB089522B381E08D
:1003200090E002C0880F991F6A95E2F7822B82BB8A
:0203300008952E
:1003320082309105A1F01CF4019739F02EC0833070
:100342009105B9F00497F9F028C089B390E002C092
:10035200959587956A95E2F781709927089586B3F6
:1003620090E002C0959587956A95E2F7817099278A
:10037200089583B390E002C0959587956A95E2F758
:1003820081709927089580B390E002C09595879572
:100392006A95E2F78170992708958FEF9FEF08958C
:0403A2000C940000B7
:00000001FF
